:100000000C9453000C947B000C947B000C947B00AC
:100010000C947B000C947B000C947B000C947B0074
:100020000C947B000C947B000C947B000C947B0064
:100030000C947B000C947B000C947B000C947B0054
:100040000C9483020C947B000C9451020C942B02B0
:100050000C947B000C947B000C947B000C947B0034
:100060000C947B000C947B0000000000250028000D
:100070002B0000000000240027002A0004040404D0
:100080000404040402020202020203030303030342
:10009000010204081020408001020408102001021F
:1000A00004081020FB0311241FBECFEFD8E0DEBFF1
:1000B000CDBF11E0A0E0B1E0EAEEFBE002C00590A8
:1000C0000D92A431B107D9F721E0A4E1B1E001C05C
:1000D0001D92AE3BB207E1F710E0C3E5D0E004C0EB
:1000E0002197FE010E944A04C235D107C9F70E9438
:1000F000CD020C94F3050C940000CF93DF9390E0B5
:10010000FC01E057FF4F2491FC01E458FF4F84911C
:100110008823C1F090E0880F991FFC01EE58FF4F33
:10012000C591D491FC01E859FF4FA591B4919FB7B7
:10013000F8948881E22FE0958E2388838C91E823C0
:10014000EC939FBFDF91CF910895CF92DF92EF9212
:10015000FF920F931F93CF93DF936C017A018B0172
:10016000C0E0D0E0CE15DF0589F0D8016D918D019A
:10017000D601ED91FC910190F081E02DC601099529
:10018000892B11F47E0102C02196ECCFC701DF91CB
:10019000CF911F910F91FF90EF90DF90CF90089536
:1001A000FC01918D828D981761F0828DDF01A80F7F
:1001B000B11D5D968C91928D9F5F9F73928F90E0A1
:1001C00008958FEF9FEF0895FC01918D828D981710
:1001D00031F0828DE80FF11D858D90E008958FEF4D
:1001E0009FEF0895FC01918D228D892F90E0805C16
:1001F0009F4F821B91098F739927089581E291E0A7
:100200000E94F20021E0892B09F420E0822F08955A
:10021000FC01848DDF01A80FB11DA35ABF4F2C91A3
:10022000848D90E001968F739927848FA689B78972
:100230002C93A089B1898C9180648C93938D848D4B
:10024000981306C00288F389E02D80818F7D80831A
:100250000895EF92FF920F931F93CF93DF93EC01DA
:1002600081E0888F9B8D8C8D981305C0E889F98972
:10027000808185FD24C0F62E0B8D10E00F5F1F4F8F
:100280000F731127E02E8C8DE8120CC00FB607FCFF
:10029000FACFE889F989808185FFF5CFCE010E94E8
:1002A0000801F1CF8B8DFE01E80FF11DE35AFF4FDE
:1002B000F0820B8FEA89FB898081806207C0EE891A
:1002C000FF896083E889F98980818064808381E087
:1002D00090E0DF91CF911F910F91FF90EF900895E3
:1002E000CF93DF93EC01888D8823C9F0EA89FB89DD
:1002F000808185FD05C0A889B9898C9186FD0FC0D4
:100300000FB607FCF5CF808185FFF2CFA889B989A8
:100310008C9185FFEDCFCE010E940801E7CFDF91E0
:10032000CF91089580E090E0892B29F00E94FE0093
:1003300081110C94000008958E3008F08E50877063
:10034000806480937C0080917A00806480937A003E
:1003500080917A0086FDFCCF809178002091790011
:1003600090E0922B08953FB7F894809119019091F5
:100370001A01A0911B01B0911C0126B5A89B05C0D4
:100380002F3F19F00196A11DB11D3FBFBA2FA92F14
:10039000982F8827820F911DA11DB11DBC01CD0191
:1003A00042E0660F771F881F991F4A95D1F708957D
:1003B0008F929F92AF92BF920F931F93CF93DF9331
:1003C000CDB7DEB7A1970FB6F894DEBF0FBECDBF95
:1003D00019A2423008F44AE08E010F5D1F4F842EAF
:1003E000912CA12CB12CA50194010E942804E62F88
:1003F000B901CA0101501109EA3014F4E05D01C0ED
:10040000E95CD801EC93232B242B252B61F70115F4
:10041000110571F0F80101900020E9F73197AF0163
:10042000401B510BB80181E291E00E94A50002C07F
:1004300080E090E0A1960FB6F894DEBF0FBECDBF6E
:10044000DF91CF911F910F91BF90AF909F908F90B0
:1004500008950E94EE051F920F920FB60F9211247D
:100460002F933F934F935F936F937F938F939F93BC
:10047000AF93BF93EF93FF9381E291E00E94080155
:10048000FF91EF91BF91AF919F918F917F916F916C
:100490005F914F913F912F910F900FBE0F901F9042
:1004A00018951F920F920FB60F9211242F938F93CE
:1004B0009F93EF93FF93E0913101F091320180819E
:1004C000E0913701F091380182FD12C09081809156
:1004D0003A018F5F8F7320913B01821751F0E091B9
:1004E0003A01F0E0EF5DFE4F958F80933A0101C035
:1004F0008081FF91EF919F918F912F910F900FBE6F
:100500000F901F9018951F920F920FB60F92112403
:100510002F933F938F939F93AF93BF938091150138
:1005200090911601A0911701B0911801309114011A
:1005300023E0230F2D3720F40196A11DB11D05C026
:1005400026E8230F0296A11DB11D2093140180936C
:10055000150190931601A0931701B0931801809193
:10056000190190911A01A0911B01B0911C010196F3
:10057000A11DB11D8093190190931A01A0931B0135
:10058000B0931C01BF91AF919F918F913F912F919B
:100590000F900FBE0F901F901895789484B58260CD
:1005A00084BD84B5816084BD85B5826085BD85B517
:1005B000816085BD80916E00816080936E00109295
:1005C0008100809181008260809381008091810010
:1005D00081608093810080918000816080938000A1
:1005E0008091B10084608093B1008091B0008160FF
:1005F0008093B00080917A00846080937A0080912B
:100600007A00826080937A0080917A008160809382
:100610007A0080917A00806880937A001092C100FD
:100620008EE00E947D008FE00E947D00E09131010C
:10063000F091320182E08083E0912D01F0912E0152
:100640001082E0912F01F09130018FEC80831092A5
:100650003901E0913501F091360186E08083E09127
:100660003301F0913401808180618083E091330116
:10067000F0913401808188608083E0913301F091B2
:100680003401808180688083E0913301F0913401EE
:1006900080818F7D80838EE00E949C01EC018FE041
:1006A0000E949C015C01BE01DD0F880B990B0E942A
:1006B000F5042DEC3CEC4CEC5DE30E9481056B01F4
:1006C0007C0180911F0190912001BC01990F880B42
:1006D000990B0E94F50426E636E646E65FE30E94A3
:1006E00081059B01AC01C701B6010E9451040E9423
:1006F000BD046B017C017093200160931F01B50163
:10070000BB0C880B990B0E94F5042DEC3CEC4CECD7
:100710005DE30E9481054B015C0180911D01909178
:100720001E01BC01990F880B990B0E94F50426E667
:1007300036E646E65FE30E9481059B01AC01C501F8
:10074000B4010E9451040E94BD0470931E01609385
:100750001D01C61AD70A0D2C000CEE08FF08F7FE83
:1007600014C0E0912101F09122010190F081E02D6F
:100770006DE281E291E0099566277727CB016C193C
:100780007D098E099F094AE003C04AE0C701B6010E
:100790000E94D80142E050E060E171E081E291E026
:1007A0000E94A5000E94B3014B015C018AE0C82EA3
:1007B000D12CE12CF12C0E94B301DC01CB01881972
:1007C0009909AA09BB09883E9340A105B10558F0D3
:1007D00021E0C21AD108E108F10888EE880E83E012
:1007E000981EA11CB11CC114D104E104F10419F735
:1007F0000E94920150CFE1E2F1E01382128288EE72
:1008000093E0A0E0B0E084839583A683B78384E07F
:1008100091E09183808385EC90E09587848784ECD8
:1008200090E09787868780EC90E0918B808B81ECBD
:1008300090E0938B828B82EC90E0958B848B86EC9E
:1008400090E0978B868B118E128E138E148E0895E6
:10085000A1E21A2EAA1BBB1BFD010DC0AA1FBB1FC4
:10086000EE1FFF1FA217B307E407F50720F0A21B36
:10087000B30BE40BF50B661F771F881F991F1A94A3
:1008800069F760957095809590959B01AC01BD01CD
:10089000CF010895EE0FFF1F0590F491E02D09940C
:1008A0005058BB27AA270E9468040C9447050E9451
:1008B000390538F00E94400520F039F49F3F19F4C3
:1008C00026F40C9436050EF4E095E7FB0C94300505
:1008D000E92F0E94580558F3BA1762077307840777
:1008E000950720F079F4A6F50C947A050EF4E095BE
:1008F0000B2EBA2FA02D0B01B90190010C01CA01DA
:10090000A0011124FF27591B99F0593F50F4503E84
:1009100068F11A16F040A22F232F342F4427585F76
:10092000F3CF469537952795A795F0405395C9F78E
:100930007EF41F16BA0B620B730B840BBAF0915046
:10094000A1F0FF0FBB1F661F771F881FC2F70EC0E5
:10095000BA0F621F731F841F48F4879577956795B8
:10096000B795F7959E3F08F0B0CF9395880F08F0A4
:100970009927EE0F9795879508950E94C40468946F
:10098000B1110C947B0508950E94600588F09F5773
:1009900098F0B92F9927B751B0F0E1F0660F771FA3
:1009A000881F991F1AF0BA95C9F714C0B13091F099
:1009B0000E947A05B1E008950C947A05672F782F8C
:1009C0008827B85F39F0B93FCCF38695779567955E
:1009D000B395D9F73EF490958095709561957F4FCA
:1009E0008F4F9F4F0895E89409C097FB3EF4909570
:1009F0008095709561957F4F8F4F9F4F9923A9F0F8
:100A0000F92F96E9BB279395F69587957795679586
:100A1000B795F111F8CFFAF4BB0F11F460FF1BC0CA
:100A20006F5F7F4F8F4F9F4F16C0882311F096E95D
:100A300011C0772321F09EE8872F762F05C066230B
:100A400071F096E8862F70E060E02AF09A95660FC4
:100A5000771F881FDAF7880F9695879597F908957D
:100A600097F99F6780E870E060E008959FEF80EC61
:100A7000089500240A941616170618060906089504
:100A800000240A9412161306140605060895092E6A
:100A90000394000C11F4882352F0BB0F40F4BF2BD9
:100AA00011F460FF04C06F5F7F4F8F4F9F4F089519
:100AB00057FD9058440F551F59F05F3F71F047950F
:100AC000880F97FB991F61F09F3F79F087950895F4
:100AD000121613061406551FF2CF4695F1DF08C013
:100AE000161617061806991FF1CF86957105610530
:100AF00008940895E894BB2766277727CB0197F9D8
:100B000008950E9494050C9447050E94390538F019
:100B10000E94400520F0952311F00C9430050C94B0
:100B2000360511240C947B050E94580570F3959F9F
:100B3000C1F3950F50E0551F629FF001729FBB27D4
:100B4000F00DB11D639FAA27F00DB11DAA1F649F70
:100B50006627B00DA11D661F829F2227B00DA11D23
:100B6000621F739FB00DA11D621F839FA00D611DA9
:100B7000221F749F3327A00D611D231F849F600DCA
:100B8000211D822F762F6A2F11249F5750409AF0F3
:100B9000F1F088234AF0EE0FFF1FBB1F661F771F7F
:100BA000881F91505040A9F79E3F510580F00C944A
:100BB00030050C947B055F3FE4F3983ED4F38695B3
:100BC00077956795B795F795E7959F5FC1F7FE2BEA
:100BD000880F911D9695879597F9089581E090E08B
:0A0BE000F8940C94F305F894FFCF8D
:100BEA00000000002901A500F200D000E400700115
:040BFA000D0A0000E0
:107E0000112484B714BE81FFF0D085E080938100F7
:107E100082E08093C00088E18093C10086E0809377
:107E2000C20080E18093C4008EE0C9D0259A86E02C
:107E300020E33CEF91E0309385002093840096BBD3
:107E4000B09BFECF1D9AA8958150A9F7CC24DD24C4
:107E500088248394B5E0AB2EA1E19A2EF3E0BF2EE7
:107E6000A2D0813461F49FD0082FAFD0023811F036
:107E7000013811F484E001C083E08DD089C08234E0
:107E800011F484E103C0853419F485E0A6D080C0E4
:107E9000853579F488D0E82EFF2485D0082F10E0AE
:107EA000102F00270E291F29000F111F8ED06801E7
:107EB0006FC0863521F484E090D080E0DECF843638
:107EC00009F040C070D06FD0082F6DD080E0C81688
:107ED00080E7D80618F4F601B7BEE895C0E0D1E017
:107EE00062D089930C17E1F7F0E0CF16F0E7DF06D8
:107EF00018F0F601B7BEE89568D007B600FCFDCFD4
:107F0000A601A0E0B1E02C9130E011968C91119780
:107F100090E0982F8827822B932B1296FA010C0160
:107F200087BEE89511244E5F5F4FF1E0A038BF0790
:107F300051F7F601A7BEE89507B600FCFDCF97BE46
:107F4000E89526C08437B1F42ED02DD0F82E2BD052
:107F50003CD0F601EF2C8F010F5F1F4F84911BD097
:107F6000EA94F801C1F70894C11CD11CFA94CF0C13
:107F7000D11C0EC0853739F428D08EE10CD085E9AC
:107F80000AD08FE07ACF813511F488E018D01DD067
:107F900080E101D065CF982F8091C00085FFFCCF94
:107FA0009093C60008958091C00087FFFCCF809118
:107FB000C00084FD01C0A8958091C6000895E0E648
:107FC000F0E098E1908380830895EDDF803219F02E
:107FD00088E0F5DFFFCF84E1DECF1F93182FE3DFCA
:107FE0001150E9F7F2DF1F91089580E0E8DFEE27F6
:047FF000FF270994CA
:027FFE00040479
:0400000300007E007B
:00000001FF
